:020000040800F2
:1000000000400020752000085519000861190008FB
:10001000671900086D190008731900080000000036
:100020000000000000000000000000004155000832
:100030007919000800000000115700088519000810
:10004000BD200008BD200008BD200008BD2000081C
:10005000BD200008BD200008BD200008BD2000080C
:10006000BD200008BD2000089F190008BD20000821
:10007000BD200008BD200008BD200008BD200008EC
:10008000BD200008BD200008BD20000800000000C1
:10009000000000000000000000000000BD2000087B
:1000A0000000000000000000000000000000000050
:1000B000AD190008BD200008BD200008BD200008C3
:1000C000BD200008BD200008BD200008BD2000089C
:1000D000BD200008BD200008BD200008BD2000088C
:1000E000BD200008BD200008000000000000000046
:1000F0000000000000000000000000000000000000
:0C01000000000000000000005FF808F1A3
:1001100010B5054C237833B9044B13B10448AFF341
:1001200000800123237010BDE001002000000000CA
:100130006096000808B5034B1BB103490348AFF3B1
:10014000008008BD00000000E40100206096000867
:10015000034613F8012B002AFBD1181A0138704707
:1001600081F0004102E000BF83F0004330B54FEA68
:1001700041044FEA430594EA050F08BF90EA020FD5
:100180001FBF54EA000C55EA020C7FEA645C7FEA68
:10019000655C00F0E2804FEA5454D4EB5555B8BF8B
:1001A0006D420CDD2C4480EA020281EA030382EAFC
:1001B000000083EA010180EA020281EA0303362D8E
:1001C00088BF30BD11F0004F4FEA01314FF4801C61
:1001D0004CEA113102D0404261EB410113F0004F73
:1001E0004FEA03334CEA133302D0524263EB43032A
:1001F00094EA050F00F0A780A4F10104D5F1200EC8
:100200000DDB02FA0EFC22FA05F2801841F1000122
:1002100003FA0EF2801843FA05F359410EE0A5F1F6
:1002200020050EF1200E012A03FA0EFC28BF4CF027
:10023000020C43FA05F3C01851EBE37101F00045DD
:1002400007D54FF0000EDCF1000C7EEB00006EEBEA
:100250000101B1F5801F1BD3B1F5001F0CD3490874
:100260005FEA30004FEA3C0C04F101044FEA4452CB
:1002700012F5800F80F09A80BCF1004F08BF5FEA52
:10028000500C50F1000041EB045141EA050130BD32
:100290005FEA4C0C404141EB010111F4801FA4F1D5
:1002A0000104E9D191F0000F04BF01460020B1FA2A
:1002B00081F308BF2033A3F10B03B3F120020CDA62
:1002C0000C3208DD02F1140CC2F10C0201FA0CF040
:1002D00021FA02F10CE002F11402D8BFC2F1200CA5
:1002E00001FA02F120FA0CFCDCBF41EA0C0190405B
:1002F000E41AA2BF01EB0451294330BD6FEA0404A4
:100300001F3C1CDA0C340EDC04F11404C4F120028E
:1003100020FA04F001FA02F340EA030021FA04F3A0
:1003200045EA030130BDC4F10C04C4F1200220FAF7
:1003300002F001FA04F340EA0300294630BD21FA35
:1003400004F0294630BD94F0000F83F4801306BFFB
:1003500081F480110134013D4EE77FEA645C18BFEF
:100360007FEA655C29D094EA050F08BF90EA020F86
:1003700005D054EA000C04BF1946104630BD91EA7E
:10038000030F1EBF0021002030BD5FEA545C05D181
:100390004000494128BF41F0004130BD14F58004C0
:1003A0003CBF01F5801130BD01F0004545F0FE4134
:1003B00041F470014FF0000030BD7FEA645C1ABF69
:1003C000194610467FEA655C1CBF0B46024650EAA0
:1003D000013406BF52EA033591EA030F41F40021CC
:1003E00030BD00BF90F0000F04BF0021704730B552
:1003F0004FF4806404F132044FF000054FF0000127
:1004000050E700BF90F0000F04BF0021704730B5E7
:100410004FF4806404F1320410F0004548BF4042BC
:100420004FF000013EE700BF42004FEAE2014FEA11
:1004300031014FEA02701FBF12F07F4393F07F4FEC
:1004400081F06051704732F07F4208BF704793F0EF
:100450007F4F04BF41F40021704730B54FF4607402
:1004600001F0004521F000411CE700BF50EA010205
:1004700008BF704730B54FF000050AE050EA0102AE
:1004800008BF704730B511F0004502D5404261EB1E
:1004900041014FF4806404F132045FEA915C3FF45F
:1004A000D8AE4FF003025FEADC0C18BF03325FEAFC
:1004B000DC0C18BF033202EBDC02C2F1200300FAAD
:1004C00003FC20FA02F001FA03FE40EA0E0021FAD2
:1004D00002F11444BDE600BF70B54FF0FF0C4CF4C0
:1004E000E06C1CEA11541DBF1CEA135594EA0C0F72
:1004F00095EA0C0F00F0DEF82C4481EA030621EAAD
:100500004C5123EA4C5350EA013518BF52EA0335E7
:1005100041F4801143F4801338D0A0FB02CE4FF099
:100520000005E1FB02E506F00042E0FB03E54FF0C9
:100530000006E1FB03569CF0000F18BF4EF0010EC1
:10054000A4F1FF04B6F5007F64F5407404D25FEABD
:100550004E0E6D4146EB060642EAC62141EA555170
:100560004FEAC52040EA5E504FEACE2EB4F1FD0CB2
:1005700088BFBCF5E06F1ED8BEF1004F08BF5FEA30
:10058000500E50F1000041EB045170BD06F00046E2
:1005900046EA010140EA020081EA0301B4EB5C048F
:1005A000C2BFD4EB0C0541EA045170BD41F4801187
:1005B0004FF0000E013C00F3AB8014F1360FDEBFAC
:1005C000002001F0004170BDC4F10004203C35DA88
:1005D0000C341BDC04F11404C4F1200500FA05F30B
:1005E00020FA04F001FA05F240EA020001F00042AC
:1005F00021F0004110EBD37021FA04F642EB060122
:100600005EEA430E08BF20EAD37070BDC4F10C044B
:10061000C4F1200500FA04F320FA05F001FA04F20F
:1006200040EA020001F0004110EBD37041F10001FB
:100630005EEA430E08BF20EAD37070BDC4F1200506
:1006400000FA05F24EEA020E20FA04F301FA05F26E
:1006500043EA020321FA04F001F0004121FA04F216
:1006600020EA020000EBD3705EEA430E08BF20EAE6
:10067000D37070BD94F0000F0FD101F00046400020
:1006800041EB010111F4801F08BF013CF7D041EAA2
:10069000060195F0000F18BF704703F000465200A6
:1006A00043EB030313F4801F08BF013DF7D043EA77
:1006B0000603704794EA0C0F0CEA135518BF95EA2D
:1006C0000C0F0CD050EA410618BF52EA4306D1D1B4
:1006D00081EA030101F000414FF0000070BD50EAD3
:1006E000410606BF1046194652EA430619D094EA5D
:1006F0000C0F02D150EA013613D195EA0C0F05D147
:1007000052EA03361CBF104619460AD181EA03019A
:1007100001F0004141F0FE4141F470014FF0000052
:1007200070BD41F0FE4141F4780170BD70B54FF0ED
:10073000FF0C4CF4E06C1CEA11541DBF1CEA13556D
:1007400094EA0C0F95EA0C0F00F0A7F8A4EB05044F
:1007500081EA030E52EA03354FEA013100F0888046
:100760004FEA03334FF0805545EA131343EA12630F
:100770004FEA022245EA111545EA10654FEA0026C4
:100780000EF000419D4208BF964244F1FD0404F57D
:10079000407402D25B084FEA3202B61A65EB0305D9
:1007A0005B084FEA32024FF480104FF4002CB6EB96
:1007B000020E75EB030E22BFB61A754640EA0C0016
:1007C0005B084FEA3202B6EB020E75EB030E22BF56
:1007D000B61A754640EA5C005B084FEA3202B6EB97
:1007E000020E75EB030E22BFB61A754640EA9C0056
:1007F0005B084FEA3202B6EB020E75EB030E22BF26
:10080000B61A754640EADC0055EA060E18D04FEAE3
:10081000051545EA16754FEA06164FEAC30343EA83
:1008200052734FEAC2025FEA1C1CC0D111F4801F50
:100830000BD141EA00014FF000004FF0004CB6E749
:1008400011F4801F04BF01430020B4F1FD0C88BFE8
:10085000BCF5E06F3FF6AFAEB5EB030C04BFB6EBF3
:10086000020C5FEA500C50F1000041EB045170BDE6
:100870000EF0004E4EEA113114EB5C04C2BFD4EB13
:100880000C0541EA045170BD41F480114FF0000E97
:10089000013C90E645EA060E8DE60CEA135594EA13
:1008A0000C0F08BF95EA0C0F3FF43BAF94EA0C0F16
:1008B0000AD150EA01347FF434AF95EA0C0F7FF48B
:1008C00025AF104619462CE795EA0C0F06D152EADF
:1008D00003353FF4FDAE1046194622E750EA4106C3
:1008E00018BF52EA43067FF4C5AE50EA41047FF4D4
:1008F0000DAF52EA43057FF4EBAE12E74FF0FF3C39
:1009000006E000BF4FF0010C02E000BF4FF0010C09
:100910004DF804CD4FEA410C7FEA6C5C4FEA430C82
:1009200018BF7FEA6C5C1BD001B050EA410C0CBFD1
:1009300052EA430C91EA030F02BF90EA020F002033
:10094000704710F1000F91EA030F58BF994208BF9A
:1009500090422CBFD8176FEAE37040F00100704757
:100960004FEA410C7FEA6C5C02D150EA013C07D1AE
:100970004FEA430C7FEA6C5CD6D152EA033CD3D0F9
:100980005DF8040B704700BF8446104662468C46F3
:100990001946634600E000BF01B5FFF7B7FF002826
:1009A00048BF10F1000F01BD4DF808EDFFF7F4FF4F
:1009B0000CBF012000205DF808FB00BF4DF808EDDA
:1009C000FFF7EAFF34BF012000205DF808FB00BFFD
:1009D0004DF808EDFFF7E0FF94BF012000205DF81F
:1009E00008FB00BF4DF808EDFFF7CEFF94BF0120D4
:1009F00000205DF808FB00BF4DF808EDFFF7C4FFCD
:100A000034BF012000205DF808FB00BF4FEA410C15
:100A10007FEA6C5C02D150EA013C0AD14FEA430CF8
:100A20007FEA6C5C02D152EA033C02D14FF0000035
:100A300070474FF0010070474FEA410212F5001273
:100A400015D211D56FF47873B3EB625212D94FEA15
:100A5000C12343F0004343EA505311F0004F23FAFF
:100A600002F018BF404270474FF00000704750EA54
:100A7000013005D111F0004008BF6FF00040704711
:100A80004FF00000704700BF4A0011D212F500126B
:100A900011D20DD56FF47873B3EB62520ED44FEAD6
:100AA000C12343F0004343EA505323FA02F0704756
:100AB0004FF00000704750EA013002D14FF0FF3094
:100AC00070474FF0000070474FEA4102B2F1E04337
:100AD00024BFB3F5001CDCF1FE5C0DD901F0004C25
:100AE0004FEAC0024CEA5070B2F1004F40EB830075
:100AF00008BF20F00100704711F0804F21D113F1A1
:100B00003872BCBF01F00040704741F480114FEAD9
:100B10005252C2F11802C2F1200C10FA0CF320FA62
:100B200002F018BF40F001004FEAC1234FEAD3237F
:100B300003FA0CFC40EA0C0023FA02F34FEA4303E9
:100B4000CCE77FEA625307D150EA01331EBF4FF072
:100B5000FE4040F44000704701F0004040F0FE408D
:100B600040F40000704700BF4FF0FF3C06E000BFBC
:100B70004FF0010C02E000BF4FF0010C4DF804CD26
:100B80004FEA40024FEA41037FEA226C18BF7FEA36
:100B9000236C11D001B052EA530C18BF90EA010F38
:100BA00058BFB2EB030088BFC81738BF6FEAE170C7
:100BB00018BF40F0010070477FEA226C02D15FEA63
:100BC000402C05D17FEA236CE4D15FEA412CE1D0CF
:100BD0005DF8040B704700BF844608466146FFE796
:100BE0000FB5FFF7C9FF002848BF10F1000F0FBD78
:100BF0004DF808EDFFF7F4FF0CBF012000205DF871
:100C000008FB00BF4DF808EDFFF7EAFF34BF0120F5
:100C100000205DF808FB00BF4DF808EDFFF7E0FF8E
:100C200094BF012000205DF808FB00BF4DF808EDDF
:100C3000FFF7D2FF94BF012000205DF808FB00BF42
:100C40004DF808EDFFF7C8FF34BF012000205DF824
:100C500008FB00BF4FEA4002B2F1FE4F0FD34FF046
:100C60009E03B3EB12620DD94FEA002343F0004319
:100C700010F0004F23FA02F018BF404270474FF0C7
:100C80000000704712F1610F01D1420205D110F04E
:100C9000004008BF6FF0004070474FF00000704701
:100CA00080B485B000AFF860B9607A60FB68064A2E
:100CB0001A60BB68054A1A607B6880221A6000BF10
:100CC0001437BD4680BC7047FC0100205002002054
:100CD00090B484B000AFF860C7E90023FA68D7E9A0
:100CE0000034C2E90034FA68D7E90634C2E90234B4
:100CF000FA68D7E90834C2E90834FA68D7E90A344F
:100D0000C2E90A34FA684FF000034FF00004C2E968
:100D10000434FA684FF000034FF00004C2E90634CF
:100D200000BF1037BD4690BC70470000B0B586B01C
:100D300000AFF860C7E90023FB6803F12004D4E9A1
:100D40000034FA68C2E90434FB68D3E90A01FB689D
:100D500018CB1A462346FFF709FA03460C46FA68F1
:100D6000C2E90634FB68D3E90645FB68D3E906010E
:100D7000FB68D3E90223FFF7F9F902460B46204648
:100D80002946FFF7D3FC03460C46C7E90434FB6849
:100D9000D3E90445FB68D3E90423D7E90001FFF751
:100DA000E3F902460B4610461946D7E90423FFF73C
:100DB00093FB02460B4620462946FFF7D7F9034628
:100DC0000C46FA68C2E90834D7E904234FF0000062
:100DD0000F49FFF7C9F903460C4618462146FB6840
:100DE00003F11804D4E900341A462346FFF774FBD4
:100DF00003460C46FA68C2E90A34FB6803F1200492
:100E0000D4E90034184621461837BD46B0BD00BFAE
:100E10000000F03FB0B58EB006AF01F051F94FF0D1
:100E2000804300225A6200F043F800F0DBF900F042
:100E30002DF900F095F800F0DDF800F0A9F914485C
:100E400002F017FD0423059308230493114B039329
:100E500000230293042301930F4B009320230F4A96
:100E60000F49104800F0C4FE0F4B3C1D1D460FCD2E
:100E70000FC495E8070084E807003B1D00211846D1
:100E800003F0C6FC0246094B1A6003F0BAFCFEE709
:100E9000D0120020001801403C1200200014014034
:100EA0007C1200205804002084960008381200208C
:100EB00080B592B000AF07F1200328220021184628
:100EC00004F09DFE07F10C0300221A605A609A603C
:100ED000DA601A613B4600221A605A609A60062363
:100EE0003B620123FB6201233B6310237B630223EC
:100EF000FB6300233B644FF4E0137B6407F12003A2
:100F0000184601F0E3FB0346002B01D000F00CFB78
:100F10000F23FB6002233B6100237B610023BB6145
:100F20000023FB6107F10C030121184601F04EFE7E
:100F30000346002B01D000F0F7FA01233B604FF489
:100F400080737B603B46184601F0DCFF0346002BB4
:100F500001D000F0E9FA00BF4837BD4680BD00006F
:100F600080B582B000AF3B1D00210A461A800A46B8
:100F70009A7000233B601D4B1D4A1A601B4B4FF0BB
:100F8000FF325A60194B4FF480729A60174802F092
:100F9000B7F80346002B01D000F0C6FA00233B71DE
:100FA00000237B710023BB713B1D012219460F48B2
:100FB00002F03CF90346002B01D000F0B5FA012302
:100FC0003B7001237B700123BB700023FB703B4609
:100FD00001221946054802F0C1F90346002B01D051
:100FE00000F0A2FA00BF0837BD4680BDBC12002049
:100FF0000028004080B586B000AF07F1080300224A
:101000001A605A609A60DA603B4600221A605A60A1
:101010001D4B4FF080421A601B4B00225A601A4B46
:1010200000229A60184B40F20772DA60164B0022D9
:101030001A61154B00229A61134802F0EFFB034638
:10104000002B01D000F070FA4FF48053BB6007F121
:10105000080319460C4802F081FE0346002B01D01C
:1010600000F062FA00233B6000237B603B46194698
:10107000054803F04EF90346002B01D000F054FA66
:1010800000BF1837BD4680BDD012002080B58EB09D
:1010900000AF07F1280300221A605A609A60DA60F4
:1010A00007F1200300221A605A603B1D00221A60DB
:1010B0005A609A60DA601A615A619A61324B334A17
:1010C0001A60314B00225A602F4B00229A602E4B3F
:1010D00040F20772DA602C4B00221A612A4B002280
:1010E0009A61294802F09AFB0346002B01D000F0D8
:1010F0001BFA4FF48053BB6207F1280319462248BC
:1011000002F02CFE0346002B01D000F00DFA1E4821
:1011100002F0D2FB0346002B01D000F005FA0023B9
:101120003B6200237B6207F120031946164803F057
:10113000F0F80346002B01D000F0F6F960237B6045
:101140006423BB600023FB6000237B613B1D002206
:1011500019460D4802F03CFD0346002B01D000F07B
:10116000E3F93B1D04221946074802F031FD03460E
:10117000002B01D000F0D8F9034800F06DFB00BF50
:101180003837BD4680BD00BF3C120020000800403B
:1011900080B500AF104B114A1A600F4B104A5A60CD
:1011A0000D4B00229A600C4B0022DA600A4B0022A1
:1011B0001A61094B0C225A61074B00229A61064BB7
:1011C0000022DA61044803F0FAF80346002B01D04C
:1011D00000F0AAF900BF80BD7C1200200038014059
:1011E0000094110080B58AB000AF07F11803002207
:1011F0001A605A609A60DA605E4B9B695D4A43F000
:10120000400393615B4B9B6903F040037B617B6907
:10121000584B9B69574A43F010039361554B9B69A8
:1012200003F010033B613B69524B9B69514A43F009
:10123000080393614F4B9B6903F00803FB60FB6855
:101240004C4B9B694B4A43F004039361494B9B69A8
:1012500003F00403BB60BB68464B9B69454A43F0FF
:1012600020039361434B9B6903F020037B607B6801
:1012700000224CF20F01404801F0ECF900224FF43B
:10128000E0613E4801F0E6F900224FF480713C48ED
:1012900001F0E0F9002220213A4801F0DBF94CF29C
:1012A0000F03BB610123FB6100233B6202237B62CE
:1012B00007F118031946304801F072F81023BB619A
:1012C000314BFB6101233B6207F1180319462A48A1
:1012D00001F066F82023BB610023FB6100233B6221
:1012E00007F118031946244801F05AF84FF4E06357
:1012F000BB610123FB6100233B6202237B6207F198
:10130000180319461D4801F04BF84FF48073BB6178
:101310000123FB6100233B6202237B6207F1180378
:101320001946174801F03CF82023BB610123FB61FB
:1013300000233B6202237B6207F118031946114820
:1013400001F02EF88023BB610023FB6100233B6288
:1013500007F1180319460B4801F022F80022052175
:101360000A2000F0E6FF0A2000F0FFFF00BF283748
:10137000BD4680BD0010024000180140000C014035
:1013800000100140001401400000211080B582B01F
:1013900000AF0346FB80FB88102B02D1034800F00E
:1013A000BBFD00BF0837BD4680BD00BF580400200C
:1013B00090B482B000AF78607B681B68B3F1804F57
:1013C0000ED10A4BD3E9001211F1320342F10004AD
:1013D000064AC2E90034054B18CB054AC2E90E346F
:1013E00000BF0837BD4690BC704700BF50040020C6
:1013F0005804002080B588B000AFF8600B467A60D2
:101400007B8107F1100300221A605A609A60DA604B
:101410007B893B617B687B610023BB610223FB61AD
:1014200007F110031946F86800F0BAFF00BF203733
:10143000BD4680BD80B58CB000AF78604FF47A6156
:10144000374800F077FC07F10C031E2200211846F4
:1014500004F0D5FB0023FB62314B1B7FDBB2012B79
:1014600020D12F4BDB68002B04D12D4B9B681B68D0
:101470005B6B15E02A4BDB68042B04D1284B9B687F
:101480001B689B6B0CE0264BDB68082B04D1244BBC
:101490009B681B68DB6B03E0214B9B681B681B6C24
:1014A000FB6224E01E4B1B7FDBB2022B1FD11C4BC7
:1014B0001B69002B04D11A4B9B681B685B6B15E002
:1014C000174B1B69042B04D1154B9B681B689B6B46
:1014D0000CE0134B1B69082B04D1114B9B681B6854
:1014E000DB6B03E00E4B9B681B681B6CFB620C4BB9
:1014F000DB6A1846FFF7AEFB024607F10C00FB6AF9
:10150000084905F06FFA064BD3F8800007F10C018B
:1015100064231E2202F0A0FF012003F0C5F99BE71F
:1015200058040020A096000880B400AF00BFBD465C
:1015300080BC70470000000090B587B000AFC7E9DD
:101540000201C7E90023482004F046FB03467B6103
:101550007A694FF000034FF00004C2E906347A695B
:101560004FF000034FF00004C2E908347A694FF0ED
:1015700000034FF00004C2E90A347A69D7E9023463
:10158000C2E900347A69D7E90034C2E902347A69E1
:10159000D7E90A34C2E904347A69D7E90C34C2E9DC
:1015A0000E347A69D7E90E34C2E910347A6906A498
:1015B000D4E90034C2E90C347B6918461C37BD46B7
:1015C00090BD00BFAFF30080333333333333E33F99
:1015D000B0B588B000AFF860C7E90023D7E90023B1
:1015E000D7E90C01FEF7C0FD03460C46C7E90434F9
:1015F000FB68D3E90645FB68D3E90201D7E9042378
:10160000FEF76AFF02460B4610461946FB68D3E90F
:101610000C23FEF761FF02460B4620462946FEF7E3
:10162000A5FD03460C46FA68C2E90634FB6818CBF0
:101630001A462346D7E90401FEF74EFF03460C463F
:10164000C7E90634FB6803F12804D4E900341A46DC
:101650002346D7E90401FEF787FD03460C461846EA
:101660002146FB6803F13004D4E900341A462346CE
:10167000FFF75CF803460C4618462146FB6803F169
:101680001004D4E900341A462346FEF725FF03462A
:101690000C461A462346D7E90601FEF767FD0346C6
:1016A0000C46C7E90634FB6803F11804D4E900349A
:1016B0001A462346D7E90601FEF758FD03460C46B5
:1016C000C7E90634FA68D7E90434C2E90A34FB688A
:1016D00003F14004D4E900341A462346D7E9060151
:1016E000FFF78AF90346002B06D0FB6803F140049C
:1016F000D4E90034C7E90634FB6803F13804D4E9BF
:1017000000341A462346D7E90601FFF757F9034686
:10171000002B06D0FB6803F13804D4E90034C7E994
:101720000634D7E90634184621462037BD46B0BDF9
:1017300080B584B000AF184B9B69174A43F0010392
:101740009361154B9B6903F00103BB60BB68124BAF
:10175000DB69114A43F08053D3610F4BDB6903F01F
:1017600080537B607B6800220F216FF0010000F046
:10177000E0FD0A4B5B68FB60FB6823F0E063FB6005
:10178000FB6843F00073FB60044AFB68536000BFD2
:101790001037BD4680BD00BF001002400000014070
:1017A00080B584B000AF78607B681B680B4A9342B9
:1017B00010D100F07FFF0A4BDB69094A43F0006358
:1017C000D361074BDB6903F00063FB60FB68054BEB
:1017D00001221A6000BF1037BD4680BD00280040BE
:1017E000001002403C04424280B584B000AF7860F3
:1017F0007B681B68B3F1804F14D1154BDB69144A29
:1018000043F00103D361124BDB6903F00103FB607A
:10181000FB68002205211C2000F08BFD1C2000F03D
:10182000A4FD10E07B681B680A4A93420BD1084B69
:10183000DB69074A43F00403D361054BDB6903F01E
:101840000403BB60BB6800BF1037BD4680BD00BF4E
:10185000001002400008004080B588B000AF7860FA
:1018600007F1100300221A605A609A60DA607B6800
:101870001B680F4A934217D10E4B9B690D4A43F0E8
:10188000080393610B4B9B6903F00803FB60FB6843
:10189000C0233B6102237B610223FB6107F110033C
:1018A0001946054800F07CFD00BF2037BD4680BDCD
:1018B0000008004000100240000C014080B588B0D4
:1018C00000AF786007F1100300221A605A609A6036
:1018D000DA607B681B681C4A934231D11B4B9B69C1
:1018E0001A4A43F480439361184B9B6903F4804385
:1018F000FB60FB68154B9B69144A43F0040393613A
:10190000124B9B6903F00403BB60BB684FF4007388
:101910003B6102237B610323FB6107F1100319463E
:101920000B4800F03DFD4FF480633B6100237B6179
:101930000023BB6107F110031946054800F030FD94
:1019400000BF2037BD4680BD003801400010024076
:101950000008014080B400AF00BFBD4680BC7047A6
:1019600080B400AFFEE780B400AFFEE780B400AF04
:10197000FEE780B400AFFEE780B400AF00BFBD4615
:1019800080BC704780B500AF00F0E0FB03F0FEFCC8
:101990000346012B01D003F0DFFE00BF80BD80B500
:1019A00000AF102000F06EFE00BF80BD80B500AF1C
:1019B000024802F004F800BF80BD00BFD012002032
:1019C00080B584B000AF7860114B1B68002B02D14A
:1019D0000F4B104A1A600E4B1B68FB600C4B1A68C9
:1019E0007B6813446A46934207D904F0CBF8024659
:1019F0000C2313604FF0FF3306E0054B1A687B6839
:101A00001344034A1360FB6818461037BD4680BD77
:101A1000E00400201813002080B400AF154B1B68B1
:101A2000144A43F001031360124B5A681149124BD8
:101A300013404B600F4B1B680E4A23F0847323F452
:101A4000803313600B4B1B680A4A23F48023136016
:101A5000084B5B68074A23F4FE035360054B4FF4C1
:101A60001F029A60054B4FF000629A6000BFBD46AE
:101A700080BC7047001002400000FFF800ED00E05D
:101A80002DE9B04388B002AF78607B687B614FF08E
:101A900000034FF00004C7E902347B69D3E90E125A
:101AA0007B69D3E910890B461446B3EB080364EB5A
:101AB00009044CF250314FF00002A24208BF994293
:101AC0000AD27B6900229A627B694FF00002DA62D7
:101AD0007B694FF000021A637B699D6C7B69DB6A4E
:101AE0001846FEF7A1FC804689467B691B6A1846AA
:101AF000FEF778FC03460C46CDE9003442464B46DF
:101B00002846FFF765FDC7E902017B691B7F012BB2
:101B100033D17B69DB68002B09D17B699B681C682A
:101B2000D7E90201FEF7B0FF034663635CE07B691F
:101B3000DB68042B09D17B699B681C68D7E902012B
:101B4000FEF7A2FF0346A3634EE07B69DB68082B28
:101B500009D17B699B681C68D7E90201FEF794FFF5
:101B60000346E36340E07B699B681C68D7E9020198
:101B7000FEF78AFF0346236436E07B691B7F022B56
:101B800032D17B691B69002B09D17B699B681C687A
:101B9000D7E90201FEF778FF0346636324E07B691F
:101BA0001B69042B09D17B699B681C68D7E902017A
:101BB000FEF76AFF0346A36316E07B691B69082BE7
:101BC00009D17B699B681C68D7E90201FEF75CFFBD
:101BD0000346E36308E07B699B681C68D7E9020160
:101BE000FEF752FF03462364642002F05DFE54E7D3
:101BF000B0B598B006AFF860B9607A607B80FB68DA
:101C0000BA68C3F88020FB6803F150014FF000036D
:101C10004FF00004CDE904344FF000034FF000040E
:101C2000CDE902344FF000033D4CCDE900344FF0D4
:101C300000023C4B0846FFF74BF83B4BDB6A18466B
:101C4000FEF7D0FB03460C46CDE904344FF0000309
:101C50004FF00004CDE902344FF000034FF00004D0
:101C6000CDE900342CA3D3E900232BA1D1E9000155
:101C7000FFF762FC0246FB689A64FB687A681A60A8
:101C8000FB687A889A80FB68BA6D9A60FB68FA6D87
:101C9000DA60FB683A6E1A61FB687A6E5A61FB681B
:101CA000B7F868201A83FB68B7F86C205A83FB6882
:101CB00001225A77FB6800221A77FB6800221A6219
:101CC0001A4B07F12C041D460FCD0FC495E80700F1
:101CD00084E8070007F12C03F968184602F098FD24
:101CE0000246FB685A62124B07F110041D460FCDE5
:101CF0000FC495E8070084E8070007F11003F968AE
:101D0000184602F085FD0246FB685A6200BF48375C
:101D1000BD46B0BDAFF300807B14AE47E17A943F7F
:101D200000407F400000F03F00080040B8960008E7
:101D3000DC96000880B483B000AF786039607B68BF
:101D400001225A777B6801221A777B683A681A6207
:101D500000BF0C37BD4680BC7047000090B585B011
:101D600000AF78607B68FB60FB685B7F002B00F056
:101D7000CD80FB681B7F032B00F2C88001A252F8C4
:101D800023F000BF951D00081D1E0008951E0008C9
:101D90000D1F0008FB689A68FB68DB68194610464F
:101DA00001F0E0FDFB689A68FB681B691946104664
:101DB00001F0D8FDFB681868FB689B880122194672
:101DC000FFF718FBFB681868FB689B88012219461F
:101DD00000F040FCFB685869FB681B8B0122194628
:101DE000FFF708FBFB685869FB681B8B002219464C
:101DF00000F030FCFB685869FB685B8B01221946D8
:101E0000FFF7F8FAFB685869FB685B8B00221946FC
:101E100000F020FCFB6800225A7777E0FB689A68A4
:101E2000FB681B691946104601F09CFDFB689A6827
:101E3000FB68DB681946104601F072FDFB685869C3
:101E4000FB681B8B00221946FFF7D4FAFB68586920
:101E5000FB681B8B0022194600F0FCFBFB685869ED
:101E6000FB685B8B01221946FFF7C4FAFB685869CF
:101E7000FB685B8B0122194600F0ECFBFB6800223B
:101E80005A77FB6803F13804D4E90034FA68C2E9F0
:101E900010343BE0FB689A68FB68DB681946104623
:101EA00001F060FDFB689A68FB681B6919461046E3
:101EB00001F036FDFB685869FB685B8B0022194610
:101EC000FFF798FAFB685869FB685B8B002219469C
:101ED00000F0C0FBFB685869FB681B8B01221946A8
:101EE000FFF788FAFB685869FB681B8B01221946CB
:101EF00000F0B0FBFB6800225A77FB6803F138045E
:101F0000D4E90034FA68C2E9103400BF012002F0BD
:101F1000CBFC29E70000000090B583B000AF7860EB
:101F20007B6803F13804D4E900341A467B6803F176
:101F30004004D4E90034D21A7B689A627B6803F1CA
:101F40003804D4E900347A68C2E910347B689B6AAB
:101F5000002B7DD07B689B6A1846FEF743FA3EA3B0
:101F6000D3E90023FEF7B8FA03460C461A46234687
:101F70004FF000003A49FEF7D9FB03460C461846DD
:101F80002146FEF7A1FD02467B681A637B681B6B46
:101F90001846FEF749FA4FF00002324BFEF79CFA62
:101FA00003460C46184621464FF000022E4BFEF722
:101FB00093FA03460C4618462146FEF785FD024675
:101FC0007B68DA627B68DB6A28491846FEF738FED0
:101FD0000346002B03D07B68244ADA620DE07B685D
:101FE000DB6A4FF000011846FEF70CFE0346002B9B
:101FF00003D07B684FF00002DA627B68DB6A1C4921
:102000001846FEF7FFFD0346002B00D120E07B6859
:10201000DB6A4FF000011846FEF712FE0346002B64
:1020200000D115E07B6803F150047B68DB6A184639
:10203000FEF7FAF902460B462046FEF777FE034606
:102040000C4618462146FEF73FFD02467B68DA62E1
:1020500000BF0C37BD4690BD8DEDB5A0F7C6B03EB4
:102060000000F03F0000B03F00004E4000401C4622
:1020700000E02B46002103E00B4B5B58435004313A
:102080000A480B4B42189A42F6D30A4A02E0002350
:1020900042F8043B084B9A42F9D3FFF7BDFC03F02A
:1020A00077FDFEF7B7FE7047E899000800000020B2
:1020B000E0010020E001002018130020FEE70000EE
:1020C00080B500AF084B1B68074A43F0100313604C
:1020D000032000F023F90F2000F008F8FFF728FB99
:1020E0000023184680BD00BF0020024080B582B0AA
:1020F00000AF7860124B1A68124B1B7819464FF4E8
:102100007A73B3FBF1F3B2FBF3F3184600F03BF93B
:102110000346002B01D001230EE07B680F2B0AD869
:10212000002279684FF0FF3000F003F9064A7B681F
:102130001360002300E0012318460837BD4680BD28
:1021400000000020080000200400002080B400AF40
:10215000054B1B781A46054B1B681344034A136052
:1021600000BFBD4680BC704708000020101300204F
:1021700080B400AF024B1B681846BD4680BC704758
:102180001013002080B485B000AF78607B6803F046
:102190000703FB600C4BDB68BB60BA684FF6FF03BC
:1021A0001340BB60FB681A02BB68134343F0BF6374
:1021B00043F40033BB60044ABB68D36000BF1437EC
:1021C000BD4680BC704700BF00ED00E080B400AFAA
:1021D000044BDB681B0A03F007031846BD4680BCAE
:1021E000704700BF00ED00E080B483B000AF03464D
:1021F000FB7197F90730002B0BDBFB7903F01F0213
:10220000064997F907305B09012000FA02F241F80C
:10221000232000BF0C37BD4680BC704700E100E0C2
:1022200080B483B000AF03463960FB7197F9073083
:10223000002B0ADB3B68DAB20C4997F90730120130
:10224000D2B20B4483F800230AE03B68DAB20849B3
:10225000FB7903F00F03043B1201D2B20B441A7650
:1022600000BF0C37BD4680BC704700BF00E100E0F6
:1022700000ED00E080B489B000AFF860B9607A602A
:10228000FB6803F00703FB61FB69C3F10703042B41
:1022900028BF0423BB61FB690433062B02D9FB6909
:1022A000033B00E000237B614FF0FF32BB6902FA81
:1022B00003F3DA43BB681A407B699A404FF0FF3161
:1022C0007B6901FA03F3D9437B680B40134318463B
:1022D0002437BD4680BC704780B582B000AF7860BF
:1022E0007B68013BB3F1807F01D301230FE00A4AF1
:1022F0007B68013B53600F214FF0FF30FFF790FFE9
:10230000054B00229A60044B07221A6000231846EE
:102310000837BD4680BD00BF10E000E080B582B048
:1023200000AF78607868FFF72DFF00BF0837BD4623
:1023300080BD80B586B000AF0346B9607A60FB739C
:1023400000237B61FFF742FF78617A68B96878699A
:10235000FFF790FF024697F90F3011461846FFF736
:102360005FFF00BF1837BD4680BD80B582B000AFAB
:102370000346FB7197F907301846FFF735FF00BF9A
:102380000837BD4680BD80B582B000AF7860786800
:10239000FFF7A2FF034618460837BD4680BD000080
:1023A00080B48BB000AF7860396000237B6200237B
:1023B0003B6227E101227B6A02FA03F3FB613B687F
:1023C0001B68FA691340BB61BA69FB699A4240F025
:1023D00016813B685B68122B34D0122B0DD8022B70
:1023E0002BD0022B04D8002B31D0012B1CD048E07D
:1023F000032B43D0112B1BD043E0894A934226D0B4
:10240000874A934206D8874A934220D0864A93420D
:102410001DD036E0854A934219D0854A934216D0A2
:10242000844A934213D02CE03B68DB683B6228E08F
:102430003B68DB6804333B6223E03B68DB680833BE
:102440003B621EE03B68DB680C333B6219E03B6893
:102450009B68002B02D104233B6212E03B689B681F
:10246000012B05D108233B627B68FA691A6108E0F9
:1024700008233B627B68FA695A6102E000233B62F1
:1024800000BFBB69FF2B01D87B6801E07B68043388
:102490007B61BB69FF2B02D87B6A9B0002E07B6AF1
:1024A000083B9B003B617B691A680F213B6901FA7D
:1024B00003F3DB431A40396A3B6901FA03F31A4319
:1024C0007B691A603B685B6803F08053002B00F067
:1024D0009680594B9B69584A43F001039361564BD0
:1024E0009B6903F00103BB60BB68544A7B6A9B088D
:1024F000023352F82330FB607B6A03F003039B0036
:102500000F2202FA03F3DB43FA681340FB607B6897
:102510004B4A934213D07B684A4A93420DD07B6862
:10252000494A934207D07B68484A934201D103232A
:1025300006E0042304E0022302E0012300E000237C
:102540007A6A02F0030292009340FA681343FB6038
:102550003A497B6A9B080233FA6841F823203B68BA
:102560005B6803F48033002B06D0394B1A68384976
:10257000BB6913430B6006E0354B1A68BB69DB434C
:10258000334913400B603B685B6803F40033002B56
:1025900006D02F4B5A682E49BB6913434B6006E0A7
:1025A0002B4B5A68BB69DB43294913404B603B689E
:1025B0005B6803F48013002B06D0254B9A682449EE
:1025C000BB6913438B6006E0214B9A68BB69DB4310
:1025D0001F4913408B603B685B6803F40013002BBA
:1025E00006D01B4BDA681A49BB691343CB6006E07F
:1025F000174BDA68BB69DB4315491340CB607B6A34
:1026000001337B623B681A687B6A22FA03F3002B72
:102610007FF4D0AE00BF2C37BD4680BC704700BFF2
:1026200000002110000011100000121000003110F5
:102630000000321000002210001002400000014093
:1026400000080140000C014000100140001401404E
:102650000004014080B483B000AF78600B467B80FB
:1026600013467B707B78002B03D07A887B681A61D5
:1026700003E07B881A047B681A6100BF0C37BD46F3
:1026800080BC704780B582B000AF0346FB80084B2A
:102690005A69FB881340002B06D0054AFB8853611A
:1026A000FB881846FEF772FE00BF0837BD4680BDA6
:1026B0000004014080B400AF034B01221A6000BF48
:1026C000BD4680BC704700BF20000E4280B586B07A
:1026D00000AF78607B68002B01D101236CE27B683E
:1026E0001B6803F00103002B00F08780924B5B68AE
:1026F00003F00C03042B0CD08F4B5B6803F00C032E
:10270000082B12D18C4B5B6803F48033B3F5803F08
:102710000BD1894B1B6803F40033002B6CD07B6812
:102720005B68002B68D1012346E27B685B68B3F5E8
:10273000803F06D1804B1B687F4A43F4803313608F
:102740002EE07B685B68002B0CD17B4B1B687A4AC0
:1027500023F480331360784B1B68774A23F480237B
:1027600013601DE07B685B68B3F5A02F0CD1724B42
:102770001B68714A43F4802313606F4B1B686E4AD9
:1027800043F4803313600BE06B4B1B686A4A23F4FD
:1027900080331360684B1B68674A23F480231360FF
:1027A0007B685B68002B13D0FFF7E2FC386108E020
:1027B000FFF7DEFC02463B69D31A642B01D90323E1
:1027C000FAE15D4B1B6803F40033002BF0D014E0FA
:1027D000FFF7CEFC386108E0FFF7CAFC02463B6910
:1027E000D31A642B01D90323E6E1534B1B6803F48E
:1027F0000033002BF0D100E000BF7B681B6803F0C2
:102800000203002B63D04C4B5B6803F00C03002BDE
:102810000BD0494B5B6803F00C03082B1CD1464BD3
:102820005B6803F48033002B16D1434B1B6803F025
:102830000203002B05D07B681B69012B01D001230B
:10284000BAE13D4B1B6823F0F8027B685B69DB0053
:10285000394913430B603AE07B681B69002B20D099
:10286000364B01221A60FFF783FC386108E0FFF75E
:102870007FFC02463B69D31A022B01D903239BE15B
:102880002D4B1B6803F00203002BF0D02A4B1B6872
:1028900023F0F8027B685B69DB00274913430B6078
:1028A00015E0264B00221A60FFF762FC386108E051
:1028B000FFF75EFC02463B69D31A022B01D90323C2
:1028C0007AE11D4B1B6803F00203002BF0D17B68FB
:1028D0001B6803F00803002B3AD07B689B69002B30
:1028E00019D0174B01221A60FFF742FC386108E04B
:1028F000FFF73EFC02463B69D31A022B01D90323A2
:102900005AE10D4B5B6A03F00203002BF0D001206B
:1029100000F0DAFA1CE00A4B00221A60FFF728FCEC
:1029200038610FE0FFF724FC02463B69D31A022B03
:1029300008D9032340E100BF0010024000004242DA
:10294000800442429E4B5B6A03F00203002BE9D1F4
:102950007B681B6803F00403002B00F0A6800023B3
:10296000FB75974BDB6903F08053002B0DD1944B23
:10297000DB69934A43F08053D361914BDB6903F0E9
:102980008053BB60BB680123FB758E4B1B6803F44F
:102990008073002B18D18B4B1B688A4A43F48073D9
:1029A0001360FFF7E5FB386108E0FFF7E1FB024643
:1029B0003B69D31A642B01D90323FDE0814B1B68CB
:1029C00003F48073002BF0D07B68DB68012B06D109
:1029D0007B4B1B6A7A4A43F0010313622DE07B684C
:1029E000DB68002B0CD1764B1B6A754A23F0010380
:1029F0001362734B1B6A724A23F0040313621CE0D8
:102A00007B68DB68052B0CD16D4B1B6A6C4A43F06D
:102A1000040313626A4B1B6A694A43F001031362A1
:102A20000BE0674B1B6A664A23F001031362644B99
:102A30001B6A634A23F0040313627B68DB68002B84
:102A400015D0FFF795FB38610AE0FFF791FB0246CE
:102A50003B69D31A41F28832934201D90323ABE098
:102A6000574B1B6A03F00203002BEED014E0FFF774
:102A70007FFB38610AE0FFF77BFB02463B69D31A14
:102A800041F28832934201D9032395E04C4B1B6AF3
:102A900003F00203002BEED1FB7D012B05D1484B47
:102AA000DB69474A23F08053D3617B68DB69002BE5
:102AB00000F08180424B5B6803F00C03082B61D06F
:102AC0007B68DB69022B46D13F4B00221A60FFF77F
:102AD0004FFB386108E0FFF74BFB02463B69D31A16
:102AE000022B01D9032367E0354B1B6803F0007309
:102AF000002BF0D17B681B6AB3F5803F08D1304BC7
:102B00005B6823F400327B689B682D4913434B605C
:102B10002B4B5B6823F474127B68196A7B685B6AD1
:102B20000B43274913434B60274B01221A60FFF7E1
:102B30001FFB386108E0FFF71BFB02463B69D31A15
:102B4000022B01D9032337E01D4B1B6803F00073F0
:102B5000002BF0D02FE01C4B00221A60FFF708FB7F
:102B6000386108E0FFF704FB02463B69D31A022BE9
:102B700001D9032320E0124B1B6803F00073002BE4
:102B8000F0D118E07B68DB69012B01D1012313E050
:102B90000B4B5B68FB60FB6803F480327B681B6A4D
:102BA0009A4206D1FB6803F470127B685B6A9A4212
:102BB00001D0012300E0002318461837BD4680BD30
:102BC00000100240007000406000424280B584B0B6
:102BD00000AF786039607B68002B01D10123D0E021
:102BE0006A4B1B6803F007033A689A4210D9674B97
:102BF0001B6823F0070265493B6813430B60634B76
:102C00001B6803F007033A689A4201D00123B8E039
:102C10007B681B6803F00203002B20D07B681B68D5
:102C200003F00403002B05D0594B5B68584A43F46A
:102C3000E06353607B681B6803F00803002B05D03A
:102C4000534B5B68524A43F460535360504B5B688C
:102C500023F0F0027B689B684D4913434B607B680F
:102C60001B6803F00103002B40D07B685B68012BDD
:102C700007D1474B1B6803F40033002B15D1012308
:102C80007FE07B685B68022B07D1414B1B6803F038
:102C90000073002B09D1012373E03D4B1B6803F047
:102CA0000203002B01D101236BE0394B5B6823F059
:102CB00003027B685B68364913434B60FFF758FAA1
:102CC000F8600AE0FFF754FA0246FB68D31A41F2B3
:102CD0008832934201D9032353E02D4B5B6803F004
:102CE0000C027B685B689B009A42EBD1274B1B6808
:102CF00003F007033A689A4210D2244B1B6823F072
:102D0000070222493B6813430B60204B1B6803F00A
:102D100007033A689A4201D0012332E07B681B68BE
:102D200003F00403002B08D0194B5B6823F4E06226
:102D30007B68DB68164913434B607B681B6803F0B4
:102D40000803002B09D0124B5B6823F460527B68A8
:102D50001B69DB000E4913434B6000F021F801466C
:102D60000B4B5B681B0903F00F030A4AD35C21FA83
:102D700003F3094A1360094B1B681846FFF7B6F9BD
:102D8000002318461037BD4680BD00BF002002401A
:102D900000100240149700080000002004000020EA
:102DA00090B48AB000AF2A4B3C1D0FCB84E80F00D3
:102DB000284B1B883B800023FB610023BB61002361
:102DC0007B6200237B6100233B62234B5B68FB61DA
:102DD000FB6903F00C03042B02D0082B03D02DE079
:102DE0001E4B3B622DE0FB699B0C03F00F0307F1C8
:102DF0002802134413F8243C7B61FB6903F48033FD
:102E0000002B13D0144B5B685B0C03F0010307F13C
:102E10002802134413F8283CBB617B690F4A02FB6C
:102E200003F2BB69B2FBF3F37B6204E07B690C4AFB
:102E300002FB03F37B627B6A3B6202E0074B3B626F
:102E400000BF3B6A18462837BD4690BC704700BF9C
:102E5000F8960008089700080010024000127A0057
:102E600000093D0080B400AF024B1B681846BD4608
:102E700080BC70470000002080B500AFFFF7F2FF74
:102E80000146054B5B681B0A03F00703034AD35C4A
:102E900021FA03F3184680BD001002402497000871
:102EA00080B500AFFFF7DEFF0146054B5B68DB0A2C
:102EB00003F00703034AD35C21FA03F3184680BDED
:102EC000001002402497000880B485B000AF7860FD
:102ED0000A4B1B680A4AA2FB03235B0A7A6802FBBF
:102EE00003F3FB6000BFFB685A1EFA60002BF9D1A8
:102EF00000BF1437BD4680BC704700BF00000020F3
:102F0000D34D621080B586B000AF786000233B617E
:102F10000023FB607B681B6803F00103002B7DD05E
:102F20000023FB75474BDB6903F08053002B0DD169
:102F3000444BDB69434A43F08053D361414BDB6927
:102F400003F08053BB60BB680123FB753E4B1B68DD
:102F500003F48073002B18D13B4B1B683A4A43F4AF
:102F600080731360FFF704F9386108E0FFF700F998
:102F700002463B69D31A642B01D903235EE0324B2E
:102F80001B6803F48073002BF0D02E4B1B6A03F4F4
:102F90004073FB60FB68002B2ED07B685B6803F4FA
:102FA0004073FA689A4227D0264B1B6A23F4407379
:102FB000FB60264B01221A60244B00221A60214A32
:102FC000FB681362FB6803F00103002B14D0FFF7CA
:102FD000CFF838610AE0FFF7CBF802463B69D31A15
:102FE00041F28832934201D9032327E0154B1B6A33
:102FF00003F00203002BEED0124B1B6A23F4407245
:103000007B685B680F4913430B62FB7D012B05D185
:103010000C4BDB690B4A23F08053D3617B681B6840
:1030200003F00203002B08D0064B5B6823F44042F8
:103030007B689B68034913434B600023184618378D
:10304000BD4680BD00100240007000404004424276
:1030500080B584B000AF78600023BB600023FB60C4
:103060007B68012B02D0022B33D041E0234B1B6A3B
:10307000BB60BB6803F44073B3F5807F08D1BB68C5
:1030800003F00203002B03D04FF40043FB601FE06A
:10309000BB6803F44073B3F5007F09D1174B5B6A3B
:1030A00003F00203002B03D049F64043FB600FE01E
:1030B000BB6803F44073B3F5407F18D10F4B1B6816
:1030C00003F40033002B12D04FF22443FB600EE0D8
:1030D0000DE0FFF7E5FE0246084B5B689B0B03F033
:1030E000030301335B00B2FBF3F3FB6000E000BFBE
:1030F000FB6818461037BD4680BD00BF0010024077
:1031000080B584B000AF78600023FB607B68002B43
:1031100001D1012384E07B685B7CDBB2002B05D10D
:103120007B6800221A747868FEF73AFB7B680222FB
:103130005A74786800F0C8F90346002B04D07B6805
:1031400004225A7401236BE0786800F081FA034688
:10315000002B04D07B6804225A74012360E07B6852
:103160001B685A687B681B6822F007025A607B68FC
:103170009B68002B05D02C4B1B6B2B4A23F00103C3
:103180001363294BDB6A23F460727B689B682649D2
:103190001343CB627B685B68B3F1FF3F03D07B686E
:1031A0005B68FB600EE00120FFF752FFF860FB68F0
:1031B000002B04D17B6804225A74012330E0FB68A1
:1031C000013BFB607B681B689B6823F00F01FB6879
:1031D0001A0C7B681B680A439A607B681B68DB6873
:1031E0001B0C1B04FA6891B27A6812680B43D36017
:1031F000786800F055FA0346002B04D07B6804225F
:103200005A7401230CE07B680022DA737B68012288
:103210005A737B6801229A737B6801225A740023D7
:1032200018461037BD4680BD006C004090B587B091
:1032300000AFF860B9607A6000237B6100233B61D6
:10324000FB68002B02D0BB68002B01D1012380E07A
:10325000FB681B7C012B01D102237AE0FB68012271
:103260001A74FB6802225A747B68002B13D1BB6866
:103270001B781A464FF4616303FB02F2BB685B786C
:1032800019460B461B015B1A9B001344BA689278DF
:1032900013447B611EE0BB681B78184600F028FAD7
:1032A00003461A464FF4616303FB02F4BB685B7884
:1032B000184600F01DFA03461A4613461B019B1AD6
:1032C0009B001C44BB689B78184600F011FA03462B
:1032D00023447B617969F86800F053F90346002BB9
:1032E00007D0FB6804225A74FB6800221A74012379
:1032F0002FE0FB681B685A68FB681B6822F0050218
:103300005A60F86800F064F938613B69B3F1FF3F37
:1033100018D03A697B699A4214D23B6903F5A83305
:1033200003F5C0733B613969F86800F06AF9034638
:10333000002B07D0FB6804225A74FB6800221A7421
:10334000012306E0FB6801225A74FB6800221A740C
:10335000002318461C37BD4690BD000080B588B0DC
:1033600000AFF860B9607A600023FB610023BB61A5
:1033700000237B61FB68002B02D0BB68002B01D1CE
:10338000012397E0FB681B7C012B01D1022391E014
:10339000FB6801221A74FB6802225A747B68002BB6
:1033A0000CD1BB68DA78FB68DA73BB685A78FB68C3
:1033B0005A73BB689A78FB689A731AE0BB68DB782B
:1033C000184600F095F903461A46FB68DA73BB68A5
:1033D0005B78184600F08CF903461A46FB685A736E
:1033E000BB689B78184600F083F903461A46FB68D1
:1033F0009A73FB68DB7B1846FB68597BFB689B7BF9
:103400001A4600F093F903461A46FB681A73FB68E4
:103410001A7BBB681A70F86800F083F8F861FB69E2
:10342000264AA2FB0323DB0A7B617B69182B3AD96E
:103430007B69234AA2FB03231B09224A02FB03F3F5
:10344000FA69D31AFB61F969F86800F09AF8034643
:10345000002B07D0FB6804225A74FB6800221A7400
:10346000012327E0F86800F0B3F8B861BB69B3F155
:10347000FF3F18D0BA69FB699A4214D2BB6903F5C1
:10348000A83303F5C073BB61B969F86800F0B9F8F7
:103490000346002B07D0FB6804225A74FB68002205
:1034A0001A74012306E0FB6801225A74FB680022AB
:1034B0001A74002318462037BD4680BDC5B3A291BB
:1034C000ABAAAAAA8051010080B584B000AF786091
:1034D0000023FB607B68002B01D101231DE07B688A
:1034E0001B685A687B681B6822F008025A60FEF766
:1034F0003FFEF86009E0FEF73BFE0246FB68D31A88
:10350000B3F57A7F01D9032307E07B681B685B680A
:1035100003F00803002BEED0002318461037BD46F9
:1035200080BD80B487B000AF786000237B82002329
:103530003B820023FB8100237B617B681B689B69C6
:103540007B827B681B68DB69FB817B681B689B69EE
:103550003B827A8A3B8A9A4208D03B8A1A047B686B
:103560001B68DB699BB213437B6104E07B8A1A040E
:10357000FB8913437B617B6918461C37BD4680BCC1
:10358000704780B584B000AF786039600023FB736A
:10359000786800F05DF80346002B02D00123FB732E
:1035A00011E07B681B683A68120C9A617B681B68A3
:1035B0003A6892B2DA61786800F072F80346002B3C
:1035C00001D00123FB73FB7B18461037BD4680BD3D
:1035D00080B485B000AF78600023FB810023BB81FD
:1035E0007B681B681B6AFB817B681B685B6ABB810D
:1035F000FB891A04BB89134318461437BD4680BCA7
:10360000704780B584B000AF786039600023FB73E9
:10361000786800F01DF80346002B02D00123FB73ED
:1036200011E07B681B683A68120C1A627B681B68A1
:103630003A6892B25A62786800F032F80346002B7A
:1036400001D00123FB73FB7B18461037BD4680BDBC
:1036500080B584B000AF78600023FB60FEF788FD82
:10366000F86009E0FEF784FD0246FB68D31AB3F563
:103670007A7F01D903230FE07B681B685B6803F046
:103680002003002BEED07B681B685A687B681B68A0
:1036900042F010025A60002318461037BD4680BD24
:1036A00080B584B000AF78600023FB607B681B6846
:1036B0005A687B681B6822F010025A60FEF758FDBA
:1036C000F86009E0FEF754FD0246FB68D31AB3F533
:1036D0007A7F01D9032307E07B681B685B6803F0EE
:1036E0002003002BEED0002318461037BD4680BDC6
:1036F00080B485B000AF0346FB710023FB60FB790B
:103700001B09DBB21A4613469B0013445B00FB60A7
:10371000FB7903F00F03DAB2FB68DBB21344DBB2D0
:1037200018461437BD4680BC7047000080B485B091
:1037300000AF78600B46FB701346BB700023BB6084
:103740000023FB607B6803F5FA63BB60FB78022B08
:103750002DD8FA7813465B001344DB009B1A2C4AE1
:10376000A2FB03235A08BB781A44BB681A44BB68FF
:10377000013B9B081A44BB68013B2649A1FB03138C
:103780005B09D21ABB68013B2249A1FB0313DB0989
:1037900013441A1D204BA3FB0213D11A49080B44F2
:1037A00099080B46DB005B1AD31AFB6029E0FA7814
:1037B00013465B001344DB009B1A154AA2FB03234C
:1037C0005A08BB781A44BB681A44BB689B081A4461
:1037D000BB681049A1FB03135B09D21ABB680D49F2
:1037E000A1FB0313DB0913449A1C0B4BA3FB02132D
:1037F000D11A49080B4499080B46DB005B1AD31A0F
:10380000FB60FB68DBB218461437BD4680BC7047CE
:10381000398EE3381F85EB512549922480B582B05B
:1038200000AF78607B68002B01D101231DE07B682D
:1038300093F83D30DBB2002B06D17B68002283F881
:103840003C207868FDF7D0FF7B68022283F83D209A
:103850007B681A687B6804331946104600F05AFBEF
:103860007B68012283F83D20002318460837BD46B7
:1038700080BD80B485B000AF78607B681B68DA6873
:103880007B681B6842F00102DA607B681B689B68FA
:1038900003F00703FB60FB68062B07D07B681B68FF
:1038A0001A687B681B6842F001021A600023184600
:1038B0001437BD4680BC704780B582B000AF7860D9
:1038C0007B68002B01D101231DE07B6893F83D301C
:1038D000DBB2002B06D17B68002283F83C2078689D
:1038E00000F015F87B68022283F83D207B681A6897
:1038F0007B6804331946104600F00CFB7B680122FC
:1039000083F83D20002318460837BD4680BD80B4AB
:1039100083B000AF786000BF0C37BD4680BC7047F5
:1039200080B584B000AF786039607B681B68012285
:103930003968184600F0C9FC7B681B689B6803F077
:103940000703FB60FB68062B07D07B681B681A68BF
:103950007B681B6842F001021A600023184610378A
:10396000BD4680BD80B582B000AF786039607B68AD
:103970001B6800223968184600F0A7FC7B681B68AA
:103980001A6A41F211131340002B0FD17B681B6898
:103990001A6A40F244431340002B07D17B681B682E
:1039A0001A687B681B6822F001021A607B6801229A
:1039B00083F83D20002318460837BD4680BD80B5FA
:1039C00082B000AF78607B681B681B6903F002035C
:1039D000022B22D17B681B68DB6803F00203022BF9
:1039E0001BD17B681B686FF002021A617B680122A1
:1039F0001A777B681B689B6903F00303002B03D0D5
:103A0000786800F06BFA05E0786800F05EFA786894
:103A100000F06DFA7B6800221A777B681B681B69CF
:103A200003F00403042B22D17B681B68DB6803F0DE
:103A30000403042B1BD17B681B686FF004021A611E
:103A40007B6802221A777B681B689B6903F44073CA
:103A5000002B03D0786800F041FA05E0786800F0A8
:103A600034FA786800F043FA7B6800221A777B68A2
:103A70001B681B6903F00803082B22D17B681B68B5
:103A8000DB6803F00803082B1BD17B681B686FF011
:103A900008021A617B6804221A777B681B68DB695D
:103AA00003F00303002B03D0786800F017FA05E059
:103AB000786800F00AFA786800F019FA7B6800224A
:103AC0001A777B681B681B6903F01003102B22D147
:103AD0007B681B68DB6803F01003102B1BD17B682D
:103AE0001B686FF010021A617B6808221A777B68E6
:103AF0001B68DB6903F44073002B03D0786800F087
:103B0000EDF905E0786800F0E0F9786800F0EFF989
:103B10007B6800221A777B681B681B6903F001032E
:103B2000012B0ED17B681B68DB6803F00103012BBE
:103B300007D17B681B686FF001021A617868FDF796
:103B400037FC7B681B681B6903F08003802B0ED158
:103B50007B681B68DB6803F08003802B07D17B68E0
:103B60001B686FF080021A61786800F01FFC7B68A8
:103B70001B681B6903F04003402B0ED17B681B6858
:103B8000DB6803F04003402B07D17B681B686FF0B4
:103B900040021A61786800F0B3F97B681B681B6902
:103BA00003F02003202B0ED17B681B68DB6803F039
:103BB0002003202B07D17B681B686FF020021A615D
:103BC000786800F0EAFB00BF0837BD4680BD000002
:103BD00080B584B000AFF860B9607A60FB6893F894
:103BE0003C30012B01D10223B4E0FB68012283F8B1
:103BF0003C20FB68022283F83D207B680C2B00F2FE
:103C00009F8001A252F823F03D3C0008413D00088E
:103C1000413D0008413D00087D3C0008413D000851
:103C2000413D0008413D0008BF3C0008413D0008FF
:103C3000413D0008413D0008FF3C0008FB681B684F
:103C4000B968184600F0B6F9FB681B689A69FB680A
:103C50001B6842F008029A61FB681B689A69FB685E
:103C60001B6822F004029A61FB681B689969BB68B3
:103C70001A69FB681B680A439A6162E0FB681B686B
:103C8000B968184600F0D2F9FB681B689A69FB68AE
:103C90001B6842F400629A61FB681B689A69FB68C2
:103CA0001B6822F480629A61FB681B689969BB6893
:103CB0001B691A02FB681B680A439A6141E0FB68B2
:103CC0001B68B968184600F0EFF9FB681B68DA69F1
:103CD000FB681B6842F00802DA61FB681B68DA695E
:103CE000FB681B6822F00402DA61FB681B68D96973
:103CF000BB681A69FB681B680A43DA6121E0FB684C
:103D00001B68B968184600F00CFAFB681B68DA6992
:103D1000FB681B6842F40062DA61FB681B68DA69C1
:103D2000FB681B6822F48062DA61FB681B68D96952
:103D3000BB681B691A02FB681B680A43DA6100E072
:103D400000BFFB68012283F83D20FB68002283F856
:103D50003C20002318461037BD4680BD80B584B096
:103D600000AF786039607B6893F83C30012B01D15B
:103D70000223A6E07B68012283F83C207B680222B4
:103D800083F83D207B681B689B68FB60FB6823F021
:103D90007703FB60FB6823F47F43FB607B681B6851
:103DA000FA689A603B681B68402B67D0402B0BD8A1
:103DB000102B73D0102B02D8002B6FD078E0202B63
:103DC0006CD0302B6AD073E0702B0DD0702B04D8E0
:103DD000502B33D0602B41D06AE0B3F5805F66D0C2
:103DE000B3F5005F17D063E07B6818683B6899689B
:103DF0003B685A683B68DB6800F048FA7B681B68E0
:103E00009B68FB60FB6843F07703FB607B681B6883
:103E1000FA689A604CE07B6818683B6899683B6870
:103E20005A683B68DB6800F031FA7B681B689A6867
:103E30007B681B6842F480429A6039E07B681868AE
:103E40003B6859683B68DB681A4600F0A8F97B6854
:103E50001B685021184600F0FFF929E07B681868BC
:103E60003B6859683B68DB681A4600F0C6F97B6816
:103E70001B686021184600F0EFF919E07B681868AC
:103E80003B6859683B68DB681A4600F088F97B6834
:103E90001B684021184600F0DFF909E07B681A68CA
:103EA0003B681B681946104600F0D6F900E000BFD9
:103EB0007B68012283F83D207B68002283F83C2048
:103EC000002318461037BD4680BD80B483B000AFD4
:103ED000786000BF0C37BD4680BC704780B483B0AB
:103EE00000AF786000BF0C37BD4680BC704780B41F
:103EF00083B000AF786000BF0C37BD4680BC704710
:103F000080B483B000AF786000BF0C37BD4680BC82
:103F10007047000080B485B000AF786039607B687E
:103F20001B68FB607B68B3F1804F07D07B681F4A3A
:103F3000934203D07B681E4A934208D1FB6823F06A
:103F40007003FB603B685B68FA681343FB607B6847
:103F5000B3F1804F07D07B68144A934203D07B684B
:103F6000134A934208D1FB6823F44073FB603B681B
:103F7000DB68FA681343FB60FB6823F080023B6850
:103F80005B691343FB607B68FA681A603B689A6858
:103F90007B68DA623B681A687B689A627B680122F8
:103FA0005A6100BF1437BD4680BC70470004004012
:103FB0000008004080B487B000AF786039607B684B
:103FC0001B6A23F001027B681A627B681B6A7B61B3
:103FD0007B685B683B617B689B69FB60FB6823F0E7
:103FE0007003FB60FB6823F00303FB603B681B6806
:103FF000FA681343FB607B6923F002037B613B6833
:104000009B687A6913437B617B683A695A607B6875
:10401000FA689A613B685A687B685A637B687A6978
:104020001A6200BF1C37BD4680BC704780B487B0A1
:1040300000AF786039607B681B6A23F010027B68F0
:104040001A627B681B6AFB607B685B687B617B68CC
:104050009B693B613B6923F4E0433B613B6923F48B
:1040600040733B613B681B681B023A6913433B6129
:10407000FB6823F02003FB603B689B681B01FA6828
:104080001343FB607B687A695A607B683A699A617E
:104090003B685A687B689A637B68FA681A6200BF5B
:1040A0001C37BD4680BC704780B487B000AF7860D5
:1040B00039607B681B6A23F480727B681A627B68B4
:1040C0001B6AFB607B685B687B617B68DB693B61CB
:1040D0003B6923F070033B613B6923F003033B61C1
:1040E0003B681B683A6913433B61FB6823F4007328
:1040F000FB603B689B681B02FA681343FB607B68AC
:104100007A695A607B683A69DA613B685A687B6809
:10411000DA637B68FA681A6200BF1C37BD4680BC50
:10412000704780B487B000AF786039607B681B6AE5
:1041300023F480527B681A627B681B6A7B617B6810
:104140005B683B617B68DB69FB60FB6823F4E043F1
:10415000FB60FB6823F44073FB603B681B681B0239
:10416000FA681343FB607B6923F400537B613B686F
:104170009B681B037A6913437B617B683A695A60C9
:104180007B68FA68DA613B685A687B681A647B6806
:104190007A691A6200BF1C37BD4680BC704780B484
:1041A00087B000AFF860B9607A60FB681B6A7B611A
:1041B000FB681B6A23F00102FB681A62FB689B69BB
:1041C0003B613B6923F0F0033B617B681B013A696B
:1041D00013433B617B6923F00A037B617A69BB6807
:1041E00013437B61FB683A699A61FB687A691A62DA
:1041F00000BF1C37BD4680BC704780B487B000AF9D
:10420000F860B9607A60FB681B6A23F01002FB68F3
:104210001A62FB689B697B61FB681B6A3B617B6977
:1042200023F470437B617B681B037A6913437B61D2
:104230003B6923F0A0033B61BB681B013A69134350
:104240003B61FB687A699A61FB683A691A6200BF50
:104250001C37BD4680BC704780B485B000AF786025
:1042600039607B689B68FB60FB6823F07003FB6030
:104270003A68FB68134343F00703FB607B68FA6806
:104280009A6000BF1437BD4680BC704780B487B0C9
:1042900000AFF860B9607A603B60FB689B687B6147
:1042A0007B6923F47F437B613B681A027B681A4376
:1042B000BB6813437A6913437B61FB687A699A6030
:1042C00000BF1C37BD4680BC704780B487B000AFCC
:1042D000F860B9607A60BB6803F01F03012202FA3C
:1042E00003F37B61FB681A6A7B69DB431A40FB6856
:1042F0001A62FB681A6ABB6803F01F03796801FA47
:1043000003F31A43FB681A6200BF1C37BD4680BC2A
:10431000704780B485B000AF786039607B6893F8EF
:104320003C30012B01D1022332E07B68012283F86B
:104330003C207B68022283F83D207B681B685B6819
:10434000FB607B681B689B68BB60FB6823F07003A5
:10435000FB603B681B68FA681343FB60BB6823F093
:104360008003BB603B685B68BA681343BB607B68D3
:104370001B68FA685A607B681B68BA689A607B6839
:10438000012283F83D207B68002283F83C20002333
:1043900018461437BD4680BC704780B483B000AF68
:1043A000786000BF0C37BD4680BC704780B483B0D6
:1043B00000AF786000BF0C37BD4680BC704780B549
:1043C00082B000AF78607B68002B01D101233FE011
:1043D0007B6893F83930DBB2002B06D17B68002272
:1043E00083F838207868FDF769FA7B68242283F81F
:1043F00039207B681B68DA687B681B6822F40052EE
:10440000DA60786800F00CF97B681B681A697B68D1
:104410001B6822F490421A617B681B685A697B68AA
:104420001B6822F02A025A617B681B68DA687B6885
:104430001B6842F40052DA607B680022DA637B6812
:10444000202283F839207B68202283F83A20002339
:1044500018460837BD4680BD80B588B002AFF86009
:10446000B9603B601346FB8000237B61FB6893F8D7
:104470003930DBB2202B40F08380BB68002B02D0A8
:10448000FB88002B01D101237BE0FB6893F83830D7
:10449000012B01D1022374E0FB68012283F838204C
:1044A000FB680022DA63FB68212283F83920FDF7DC
:1044B0005FFE7861FB68FA889A84FB68FA88DA8480
:1044C00042E0FB68DB8C9BB2013B9AB2FB68DA846A
:1044D000FB689B68B3F5805F22D13B6800937B69E2
:1044E00000228021F86800F050F80346002B01D02C
:1044F000032346E0BB683B613B691B881A46FB68A7
:104500001B68C2F308025A60FB681B69002B03D1C9
:10451000BB680233BB6017E0BB680133BB6013E0CC
:104520003B6800937B6900228021F86800F02DF839
:104530000346002B01D0032323E0BB685A1CBA605A
:104540001A78FB681B685A60FB68DB8C9BB2002BF7
:10455000B7D13B6800937B6900224021F86800F0E6
:1045600014F80346002B01D003230AE0FB68202245
:1045700083F83920FB68002283F83820002300E00C
:10458000022318461837BD4680BD80B584B000AF01
:10459000F860B9603B601346FB712CE0BB69B3F176
:1045A000FF3F28D0BB69002B07D0FDF7E1FD024695
:1045B0003B68D31ABA699A421DD2FB681B68DA6855
:1045C000FB681B6822F4D072DA60FB681B685A69CA
:1045D000FB681B6822F001025A61FB68202283F805
:1045E0003920FB68202283F83A20FB68002283F8F8
:1045F000382003230FE0FB681B681A68BB68134070
:10460000BA689A420CBF01230023DBB21A46FB7939
:104610009A42C3D0002318461037BD4680BD000023
:1046200080B584B000AF78607B681B681B6923F499
:1046300040517B68DA687B681B680A431A617B68B3
:104640009A687B681B691A437B685B691343FB604C
:104650007B681B68DB6823F4B05323F00C037A6893
:104660001268F9680B43D3607B681B685B6923F4AD
:1046700040717B689A697B681B680A435A617B6852
:104680001B68524A93424ED1FEF70AFCB860BA68E2
:1046900013469B0013449A001A447B685B689B0096
:1046A000B2FBF3F34A4AA2FB03235B091901BA6880
:1046B00013469B0013449A001A447B685B689B0076
:1046C000B2FBF3F2424BA3FB02035B09642000FB45
:1046D00003F3D31A1B0132333D4AA2FB03235B09C8
:1046E00003F0F0031944BA6813469B0013449A0080
:1046F0001A447B685B689B00B2FBF3F2344BA3FB6C
:1047000002035B09642000FB03F3D31A1B0132335D
:104710002F4AA2FB03235B0903F00F027B681B688F
:104720000A449A604DE0FEF7A7FBB860BA681346EA
:104730009B0013449A001A447B685B689B00B2FBA1
:10474000F3F3234AA2FB03235B091901BA6813465A
:104750009B0013449A001A447B685B689B00B2FB81
:10476000F3F21B4BA3FB02035B09642000FB03F382
:10477000D31A1B013233164AA2FB03235B0903F051
:10478000F0031944BA6813469B0013449A001A4474
:104790007B685B689B00B2FBF3F20D4BA3FB02034B
:1047A0005B09642000FB03F3D31A1B013233084A70
:1047B000A2FB03235B0903F00F027B681B680A441A
:1047C0009A6000BF1037BD4680BD00BF0038014071
:1047D0001F85EB5180B485B000AF0346FB800023FA
:1047E000FB60B7F90630842B05D0B7F90620FB68CB
:1047F00013440333FB60FB6818461437BD4680BC86
:10480000704780B500AF00F0CDFA0023184680BD98
:10481000F0B589B004AF786039607B685B69002BC4
:1048200020D07B689B69002B1CD07B685C687B6810
:104830001D687B681E697B68B3F908301846FFF76E
:10484000C9FF01467B685B697A68926902920193AD
:1048500000913B6832462946204600F0E8F80346BE
:10486000FB601CE07B685C687B681D687B681B697B
:104870009EB27B68B3F908301846FFF7ABFF0246DB
:1048800007F10C03019300923B683246294620460B
:1048900000F026F90346012B01D0002300E0FB685D
:1048A00018461437BD46F0BD80B584B000AF7860BF
:1048B0007B68FB60FB68002B01D0FB6800E00123F4
:1048C000184600F03BFA002318461037BD4680BD5D
:1048D00080B483B000AF78607B6803F108027B6826
:1048E0005A607B684FF0FF329A607B6803F10802E0
:1048F0007B68DA607B6803F108027B681A617B6879
:1049000000221A6000BF0C37BD4680BC704780B4DF
:1049100083B000AF78607B6800221A6100BF0C375B
:10492000BD4680BC704780B485B000AF7860396008
:104930007B685B68FB603B68FA685A60FB689A6852
:104940003B689A60FB689B683A685A60FB683A6803
:104950009A603B687A681A617B681B685A1C7B689E
:104960001A6000BF1437BD4680BC704780B485B064
:1049700000AF786039603B681B68BB60BB68B3F10F
:10498000FF3F03D17B681B69FB600CE07B68083349
:10499000FB6002E0FB685B68FB60FB685B681B68B0
:1049A000BA689A42F6D2FB685A683B685A603B681C
:1049B0005B683A689A603B68FA689A60FB683A6894
:1049C0005A603B687A681A617B681B685A1C7B686E
:1049D0001A6000BF1437BD4680BC704780B485B0F4
:1049E00000AF78607B681B69FB607B685B687A68F6
:1049F00092689A607B689B687A6852685A60FB6824
:104A00005B687A689A4203D17B689A68FB685A604F
:104A10007B6800221A61FB681B685A1EFB681A60DB
:104A2000FB681B6818461437BD4680BC704780B5CC
:104A30008EB004AFF860B9607A603B607B6B002B8E
:104A400009D14FF0500383F31188BFF36F8FBFF389
:104A50004F8F3B62FEE7BB6B002B09D14FF0500339
:104A600083F31188BFF36F8FBFF34F8FFB61FEE7B6
:104A700054233B613B69542B09D04FF0500383F31F
:104A80001188BFF36F8FBFF34F8FBB61FEE7BB6B26
:104A9000002B1ED07B6B002B1BD0BB6B7B627B6A19
:104AA0007A6B1A637B6A022283F8512000230393F6
:104AB0007B6A029307F1140301933B6B00933B68FD
:104AC0007A68B968F86800F050F8786A00F0CCF8B5
:104AD00001E000237B617B6918462837BD4680BD15
:104AE00080B58CB004AFF860B9603B601346FB80C2
:104AF000FB889B00184600F071FE78617B69002BF3
:104B00000ED0542000F06AFEF861FB69002B03D040
:104B1000FB697A691A6305E0786900F021FF01E01A
:104B20000023FB61FB69002B17D0FB69002283F88F
:104B30005120FA8800230393FB690293FB6A0193D7
:104B4000BB6A00933B68B968F86800F00EF8F86932
:104B500000F08AF80123BB6102E04FF0FF33BB6134
:104B6000BB6918462037BD4680BD80B588B000AF10
:104B7000F860B9607A603B603B6B1A6B7B6803F14D
:104B80008043013B9B001344BB61BB6923F00703D7
:104B9000BB61BB6903F00703002B09D04FF0500342
:104BA00083F31188BFF36F8FBFF34F8F7B61FEE7F5
:104BB0000023FB6112E0BA68FB69134419783A6B71
:104BC000FB69134434330A461A70BA68FB6913440C
:104BD0001B78002B06D0FB690133FB61FB690F2BAF
:104BE000E9D900E000BF3B6B002283F84320BB6A99
:104BF000062B01D90623BB623B6BBA6ADA623B6BB8
:104C0000BA6A5A643B6B00229A643B6B04331846C1
:104C1000FFF77DFE3B6B18331846FFF778FE3B6BC2
:104C20003A6B1A61BB6AC3F107023B6B9A613B6B3B
:104C30003A6B5A623B6B0022DA643B6B002283F8CA
:104C400050203A68F968B86900F024FC02463B6BD2
:104C50001A60FB6A002B02D0FB6A3A6B1A6000BF35
:104C60002037BD4680BD000080B582B000AF7860BF
:104C700000F0FAFC2A4B1B680133294A1360294BC8
:104C80001B68002B09D1274A7B681360244B1B68E3
:104C9000012B10D100F0BCFA0DE0234B1B68002B58
:104CA00009D1204B1B68DA6A7B68DB6A9A4202D81A
:104CB0001C4A7B6813601D4B1B6801331B4A136041
:104CC0007B68DB6A01229A40194B1B681343184A20
:104CD00013607B68DA6A13469B0013449B00154AF5
:104CE0001A447B68043319461046FFF71CFE00F097
:104CF000E9FC0D4B1B68002B0ED00A4B1B68DA6ACF
:104D00007B68DB6A9A4207D20B4B4FF080521A60E5
:104D1000BFF34F8FBFF36F8F00BF0837BD4680BD15
:104D2000E4050020E4040020F00500200006002037
:104D3000EC050020E804002004ED00E080B584B01C
:104D400000AF78600023FB607B68002B16D0134B0C
:104D50001B68002B09D04FF0500383F31188BFF379
:104D60006F8FBFF34F8FBB60FEE700F079F8002133
:104D7000786800F029FB00F081F8F860FB68002BF0
:104D800007D1074B4FF080521A60BFF34F8FBFF32C
:104D90006F8F00BF1037BD4680BD00BF0C060020DE
:104DA00004ED00E080B58AB004AF0023BB600023AF
:104DB0007B603A46391D07F108031846FBF770FF80
:104DC00039687B68BA68029201930023009300233C
:104DD0000A461D491D48FFF72AFE02461C4B1A6071
:104DE0001B4B1B68002B02D001237B6101E00023D9
:104DF0007B617B69012B15D14FF0500383F3118840
:104E0000BFF36F8FBFF34F8F3B61124B4FF0FF32F9
:104E10001A60114B01221A60104B00221A6000F038
:104E2000B3FB0DE07B69B3F1FF3F09D14FF05003B5
:104E300083F31188BFF36F8FBFF34F8FFB60FEE7E3
:104E400000BF1837BD4680BD0C970008E15100082F
:104E50000806002004060020F0050020E8050020D8
:104E600080B400AF044B1B680133034A136000BFDA
:104E7000BD4680BC704700BF0C06002080B584B0E2
:104E800000AF0023FB600023BB60414B1B68002B7D
:104E900009D14FF0500383F31188BFF36F8FBFF335
:104EA0004F8F3B60FEE700F0DFFB394B1B68013B97
:104EB000374A1360364B1B68002B61D1354B1B689A
:104EC000002B5DD02EE0344BDB68DB68FB60FB68B9
:104ED00018331846FFF782FDFB6804331846FFF7C6
:104EE0007DFDFB68DB6A01229A402C4B1B68134353
:104EF0002A4A1360FB68DA6A13469B0013449B003E
:104F0000274A1A44FB68043319461046FFF70BFD85
:104F1000FB68DA6A234B1B68DB6A9A4202D3224B96
:104F200001221A601C4B1B68002BCCD1FB68002BA4
:104F300001D000F007FA1D4B1B687B607B68002BDB
:104F400010D000F037F80346002B02D0164B012298
:104F50001A607B68013B7B607B68002BF1D1134BAF
:104F600000221A60104B1B68002B09D00123BB6084
:104F70000F4B4FF080521A60BFF34F8FBFF36F8F0C
:104F800000F0A0FBBB6818461037BD4680BD00BFCF
:104F90000C060020E4050020A4050020EC050020FC
:104FA000E8040020E4040020F8050020F4050020B7
:104FB00004ED00E080B586B000AF00237B61504B6C
:104FC0001B68002B40F08C804E4B1B6801333B610B
:104FD0004C4A3B6913603B69002B1FD14A4B1B684D
:104FE0001B68002B09D04FF0500383F31188BFF3E7
:104FF0006F8FBFF34F8F3B60FEE7434B1B68FB6037
:10500000424B1B68404A1360404AFB681360404BA8
:105010001B6801333E4A136000F094F93D4B1B6856
:105020003A699A424DD3384B1B681B68002B01D15B
:10503000012300E00023002B04D0364B4FF0FF3259
:105040001A603EE0304B1B68DB68DB68BB60BB6806
:105050005B687B603A697B689A4203D22D4A7B6821
:1050600013602EE0BB6804331846FFF7B7FCBB683B
:105070009B6A002B04D0BB6818331846FFF7AEFCC0
:10508000BB68DB6A01229A40234B1B681343224A08
:105090001360BB68DA6A13469B0013449B001F4AE7
:1050A0001A44BB68043319461046FFF73CFCBB6842
:1050B000DA6A1B4B1B68DB6A9A42B4D301237B611B
:1050C000B1E7174B1B68DA6A144913469B00134477
:1050D0009B000B441B68012B07D901237B6104E073
:1050E000104B1B6801330F4A13600F4B1B68002BDA
:1050F00001D001237B617B6918461837BD4680BD0E
:105100000C060020E80500209C050020A0050020DA
:10511000FC05002004060020EC050020E804002027
:10512000E4040020F4050020F805002080B487B0D6
:1051300000AF264B1B68002B03D0254B01221A60C1
:105140003EE0234B00221A60224B1B68FB60FB6889
:10515000B3FA83F3FB72FB7AC3F11F037B611E4931
:105160007A6913469B0013449B000B441B68002B79
:1051700009D14FF0500383F31188BFF36F8FBFF352
:105180004F8F7B60FEE77A6913469B0013449B00B8
:10519000114A13443B613B695B685A683B695A603A
:1051A0003B695A683B6908339A4204D13B695B68A2
:1051B0005A683B695A603B695B68DB68074A136061
:1051C00000BF1C37BD4680BC704700BF0C060020E6
:1051D000F8050020EC050020E8040020E40400208D
:1051E00080B582B000AF786000F052F8064B1B68C3
:1051F000012BF9D9054B4FF080521A60BFF34F8F46
:10520000BFF36F8FF0E700BFE804002004ED00E07B
:1052100080B582B000AF00237B600CE07A68134653
:105220009B0013449B00124A13441846FFF750FB9F
:105230007B6801337B607B68062BEFD90D48FFF755
:1052400047FB0D48FFF744FB0C48FFF741FB0C48B8
:10525000FFF73EFB0B48FFF73BFB0B4B054A1A6081
:105260000A4B054A1A6000BF0837BD4680BD00BF23
:10527000E80400207405002088050020A405002013
:10528000B8050020D00500209C050020A0050020C6
:1052900080B582B000AF19E000F0E6F90F4BDB6893
:1052A000DB687B607B6804331846FFF797FB0C4B89
:1052B0001B68013B0A4A13600A4B1B68013B094A01
:1052C000136000F0FFF9786800F00EF8054B1B68DA
:1052D000002BE1D100BF0837BD4680BDB8050020D6
:1052E000E4050020CC05002080B584B000AF7860D4
:1052F0007B6893F85130002B08D17B681B6B1846F4
:1053000000F02EFB786800F02BFB17E07B6893F829
:105310005130012B03D1786800F022FB0EE07B684E
:1053200093F85130022B09D04FF0500383F31188CA
:10533000BFF36F8FBFF34F8FFB60FEE700BF1037E7
:10534000BD4680BD80B483B000AF0E4B1B681B68A8
:10535000002B01D1012300E00023002B04D00A4BD5
:105360004FF0FF321A6008E0064B1B68DB68DB6811
:105370007B607B685B68044A136000BF0C37BD46E6
:1053800080BC70479C0500200406002080B483B0D8
:1053900000AF0B4B1B68002B02D101237B6008E0A0
:1053A000084B1B68002B02D102237B6001E0002325
:1053B0007B607B6818460C37BD4680BC704700BFD9
:1053C000F00500200C06002080B584B000AF7860A6
:1053D0003960294B1B68FB60284B1B680433184657
:1053E000FFF7FCFA0346002B0BD1244B1B68DB6A4A
:1053F000012202FA03F3DA43214B1B681340204ACF
:1054000013607B68B3F1FF3F0AD13B68002B07D0E4
:105410001A4B1B68043319461A48FFF784FA26E032
:10542000FA687B681344BB60144B1B68BA685A6007
:10543000BA68FB689A4209D2134B1A680F4B1B6873
:10544000043319461046FFF791FA10E00F4B1A6823
:105450000A4B1B68043319461046FFF787FA0C4BBA
:105460001B68BA689A4202D2094ABB68136000BF3F
:105470001037BD4680BD00BFE8050020E4040020D1
:10548000EC050020D0050020A00500209C05002090
:105490000406002080B485B000AFF860B9607A607F
:1054A000FB68043BFB60FB684FF080721A60FB688E
:1054B000043BFB60BB6823F00102FB681A60FB68D9
:1054C000043BFB60084AFB681A60FB68143BFB6006
:1054D0007A68FB681A60FB68203BFB60FB68184633
:1054E0001437BD4680BC7047ED54000880B485B0C9
:1054F00000AF00237B60104B1B68B3F1FF3F09D066
:105500004FF0500383F31188BFF36F8FBFF34F8FBA
:10551000FB60FEE74FF0500383F31188BFF36F8FFA
:10552000BFF34F8FBB6000BF7B68002BFCD000BF78
:105530001437BD4680BC70470C00002000000000FE
:10554000074B19680868B0E8F00F80F30988BFF3CB
:105550006F8F4FF0000080F311884EF00D0E7047F2
:10556000E404002000BF00BF06480068006880F324
:10557000088862B661B6BFF34F8FBFF36F8F00DF4D
:1055800000BF00BF08ED00E080B584B000AF314B34
:10559000FB60FB681B78DBB27B60FB68FF221A7044
:1055A000FB681B78DBB2FB70FB78DBB203F05003C7
:1055B000DAB2294B1A70294B07221A6009E0274BEF
:1055C0001B68013B254A1360FB78DBB25B00DBB252
:1055D000FB70FB78DBB203F08003802BEFD01F4B16
:1055E0001B68C3F10703042B09D04FF0500383F36A
:1055F0001188BFF36F8FBFF34F8FBB60FEE7174B70
:105600001B681B02154A1360144B1B6803F4E0630C
:10561000124A13607B68DAB2FB681A70104B1B6881
:105620000F4A43F4700313600D4B1B680C4A43F0A0
:105630007043136000F0B0F80A4B00221A60FFF7C5
:1056400093FFFFF773FDFFF751FF00231846103754
:10565000BD4680BD00E400E01006002014060020D6
:1056600020ED00E00C00002080B483B000AF4FF0CC
:10567000500383F31188BFF36F8FBFF34F8F7B60AD
:105680000E4B1B6801330D4A13600C4B1B68012B3A
:105690000ED10B4B1B68DBB2002B09D04FF050032F
:1056A00083F31188BFF36F8FBFF34F8F3B60FEE72B
:1056B00000BF0C37BD4680BC704700BF0C00002007
:1056C00004ED00E080B483B000AF104B1B68002BEA
:1056D00009D14FF0500383F31188BFF36F8FBFF3ED
:1056E0004F8F7B60FEE7094B1B68013B074A136045
:1056F000064B1B68002B04D100233B603B6883F3FF
:10570000118800BF0C37BD4680BC70470C000020DC
:10571000EFF30980BFF36F8F0D4B1A6820E9F00F8C
:1057200010602DE908404FF0500080F31188FFF71A
:10573000FDFC4FF0000080F31188BDE808401968B7
:105740000868B0E8F00F80F30988BFF36F8F7047E7
:10575000E404002000BF00BF80B582B000AF4FF06E
:10576000500383F31188BFF36F8FBFF34F8F7B60BC
:10577000FFF720FC0346002B03D0064B4FF080526E
:105780001A6000233B603B6883F3118800BF083731
:10579000BD4680BD04ED00E080B400AF0A4B00229E
:1057A0001A600A4B00221A60094B1B68094AA2FBC7
:1057B00003239B09084A013B1360034B07221A602D
:1057C00000BFBD4680BC704710E000E018E000E07C
:1057D00000000020D34D621014E000E080B58AB0D4
:1057E00000AF78600023FB61FFF73AFB574B1B6863
:1057F000002B01D100F00CF9554B1A687B6813405F
:10580000002B40F08C807B68002B1CD008227B682A
:1058100013447B607B6803F00703002B13D07B6885
:1058200023F0070308337B607B6803F00703002B3A
:1058300009D04FF0500383F31188BFF36F8FBFF38C
:105840004F8F7B61FEE77B68002B68D0414B1B6864
:105850007A689A4263D8404B3B623F4B1B687B623D
:1058600004E07B6A3B627B6A1B687B627B6A5B68E5
:105870007A689A4203D97B6A1B68002BF1D1334BBB
:105880001B687A6A9A424AD03B6A1B680822134412
:10589000FB617B6A1A683B6A1A607B6A5A687B689C
:1058A000D21A08235B009A421ED97A6A7B68134495
:1058B000BB61BB6903F00703002B09D04FF0500315
:1058C00083F31188BFF36F8FBFF34F8F3B61FEE708
:1058D0007B6A5A687B68D21ABB695A607B6A7A68AD
:1058E0005A60B86900F0F6F81A4B1A687B6A5B6870
:1058F000D31A184A1360174B1A68184B1B689A4240
:1059000003D2144B1B68154A13607B6A5A68104B0C
:105910001B681A437B6A5A607B6A00221A60FFF791
:10592000ADFAFB6903F00703002B09D04FF05003D9
:1059300083F31188BFF36F8FBFF34F8FFB60FEE7D8
:10594000FB6918462837BD4680BD00BF20120020E5
:105950002C120020241200201812002028120020EF
:1059600080B586B000AF78607B687B617B68002B78
:1059700046D008235B427A6913447B617B693B61B3
:105980003B695A68204B1B681340002B09D14FF02C
:10599000500383F31188BFF36F8FBFF34F8FFB600A
:1059A000FEE73B691B68002B09D04FF0500383F3DF
:1059B0001188BFF36F8FBFF34F8FBB60FEE73B696A
:1059C0005A68114B1B681340002B19D03B691B68A8
:1059D000002B15D13B695A680B4B1B68DB431A40FF
:1059E0003B695A60FFF73CFA3B695A68074B1B68F2
:1059F0001344064A1360386900F06CF8FFF73EFA6A
:105A000000BF1837BD4680BD2C1200202412002094
:105A100080B485B000AF4FF44063BB60274BFB60A0
:105A2000FB6803F00703002B0CD0FB680733FB6017
:105A3000FB6823F00703FB60BA68FB68D31A1F4AB0
:105A40001344BB60FB687B601D4A7B6813601C4B82
:105A500000225A607B68BA681344FB600822FB6826
:105A60009B1AFB60FB6823F00703FB60FB68154A89
:105A70001360144B1B6800225A60124B1B680022F3
:105A80001A607B683B603B68FA68D21A3B685A60D0
:105A90000C4B1A683B681A603B685B680A4A1360E3
:105AA0003B685B68094A1360094B4FF000421A607B
:105AB00000BF1437BD4680BC704700BF18060020E9
:105AC000181200202012002028120020241200208A
:105AD0002C12002080B485B000AF7860274BFB60AB
